:020000040800F2
:100000004005002001010008D9160008D516000897
:10001000D71600080902000875210008000000003A
:10002000000000000000000000000000AF1E0008FB
:100030000B02000800000000DF1C0008B11E0008D1
:100040001B0100081B0100081B0100081B01000820
:100050001B0100081B0100081B0100081B01000810
:100060001B0100081B0100081B0100081B01000800
:100070001B0100081B0100081B0100081B010008F0
:100080001B0100081B0100081B0100081B010008E0
:100090001B0100081B0100081B0100081B010008D0
:1000A0001B0100081B0100081B0100081B010008C0
:1000B0001B0100081B0100081B0100081B010008B0
:1000C0001B0100081B0100081B0100081B010008A0
:1000D0001B010008652100081B0100086D210008B4
:1000E0000D0200081B0100081B010008DFF80CD0FE
:1000F00000F078F80048004715220008400500206D
:100100000648804706480047FEE7FEE7FEE7FEE7B1
:10011000FEE7FEE7FEE7FEE7FEE7FEE7111F000849
:10012000ED00000880EA010210B502F00043400033
:1001300022D04A001FD0010E01EB1261C0F356001D
:10014000C2F3560240F4000042F40002A0FB022079
:1001500000047F39140400D0401C50EA124001D43E
:100160004000491EC2B20C0604EBD010401C4008EF
:10017000802A02D003E0002010BD20F001000029F9
:1001800000DA0020184310BD00F0004220F00040CB
:10019000C10DC0F3160040F400007F2901DA0020F1
:1001A0007047962903DCC1F19601C84001E09639F9
:1001B0008840002AF4D04042704720F00040C10D32
:1001C000C0F3160040F400007F2901DA00207047D8
:1001D000962903DCC1F19601C840704796398840E2
:1001E00070470000064C074D06E0E06840F0010350
:1001F00094E8070098471034AC42F6D3FFF77AFF33
:10020000C02C0008E02C0008FEE7704710B5084C31
:100210004FF48050A0474FF40050A0474FF4804067
:10022000A0474FF400402146BDE81040084700BFFA
:100230004903000890F8211002291BD102681F4BC6
:1002400011689A4221F00E011160116821F001013C
:100250001160194912D01A4B9A4211D0194B9A4287
:1002600010D0194B9A4210D0184B9A4210D14FF42B
:10027000803315E0042181630120704701230FE0E2
:1002800010230DE04FF480730AE04FF4805307E031
:1002900001F1680C4FF08073624508BF4FF4801382
:1002A0000B604FF480710184416B19B180B58847B0
:1002B000002080BD0020704704000240080002407A
:1002C0001C0002403000024044000240580002403E
:1002D000B0B5044600F01AF90546A748611C00783D
:1002E00018BF044400F012F9401BA042FAD3B0BD7D
:1002F00070B50320FFF7ECFF7D4C104E4FF480519A
:100300002046B0470E4D4FF40051E8732046B047E9
:10031000287420464FF48041B047687420464FF45B
:100320000041B047A87402F081F80648697B007864
:1003300001F03EFC0020C5F80F0070BDF904000874
:10034000680000200000002003490A68024214BF30
:1003500008607047FFF7CCBF140401402DE9FC4F43
:10036000594A04234FF0000B4FF001084FF00F0ED5
:100370004FF000090025904208BF032300930A684C
:1003800032FA05F308BFBDE8FC8F08FA05F73A42D8
:1003900000F096804A68032A16D9112A24D0122A1E
:1003A00026D04C4B9A4213D04B4B9A4210D04B4B19
:1003B0009A420DD04A4B9A420AD04A4B9A4207D0F1
:1003C000494B9A4204D020E0DFE802F00216191DE2
:1003D0008A6832B1012A14BF476107614FF00809EA
:1003E00013E04FF0040910E0CA6802F104090CE0C0
:1003F000CA6802F10C0908E0D1F80C9005E0CA685F
:1004000002F1080901E04FF000095A460446082DA0
:1004100028BF203A28BF043426680EFA02F309FAEE
:1004200002F226EA03031A432260CA79D20647D5AC
:10043000604A0BF00C0C1346126842F001021A607D
:100440001A680EFA0CF302F0010201921F4A019C95
:10045000AC08A2F57E7656F8242022EA030A234A45
:10046000904208D0224A904207D0224A009B9042F4
:1004700008BF022302E0002300E0012303FA0CF28C
:1004800042EA0A0246F82420104E4A68D303336831
:1004900054BFBB433B4333609303736854BFBB43B8
:1004A0003B437360D302B36854BFBB433B439202E8
:1004B000B360074A1346126854BFBA433A431A60FE
:1004C0000BF1040B01355AE7001401400004014010
:1004D0000C04014000001110000012100000211057
:1004E000000022100000311000003210000801400E
:1004F000000C0140001001408068084018BF012036
:100500007047002A08BF0904016170470548006868
:10051000704700BF1848034900780A681044086013
:10052000704700BF3801002080B5032000F072F84A
:10053000002000F005F800F021F8002080BD000048
:1005400070B50D4E04464FF47A713078B1FBF0F07F
:10055000F7490968B1FBF0F000F032FE01250F2CDD
:1005600008D838B94FF0FF3021460022002500F0AE
:1005700033F87460284670BD0400002082B00D4836
:100580000222016841F001010160016801F00101EE
:1005900001910199416841F080514160406800F04B
:1005A0008050009000980448016862F31A6101606D
:1005B00002B070471810024004000140002808DB18
:1005C00000F01F010122400902FA01F1014A42F83C
:1005D0002010704700E100E080B5144B1B68C3F3A6
:1005E000022CBCF1030E8CF007034FF0FF3C38BF28
:1005F0004FF0000E042B28BF04230CFA03F3994399
:100600000CFA0EF301FA0EF19A431143BDE8804053
:1006100001F0EEBD05494FF6FF030A681A4060F38A
:100620000A22034810430860704700BF0CED00E049
:100630000000FA05014801210160704720000E42C8
:10064000012811D0022822D010284ED128494A680A
:100650000868C00149D5C2F3834026A3D203185CC1
:1006600024D4D54A50432AE02149086A00F4407254
:10067000B2F5407F2CD0B2F5007F30D0B2F5807F4C
:1006800033D1800744BF4FF4004070472DE080B560
:1006900000F05CF9164902224968C1F3813102EB8E
:1006A0004101B0FBF1F0BDE8804070474A6815A3F6
:1006B000C2F340429A5CBA4BB3FBF2F25043496832
:1006C000490248BF704740000321B0FBF1F070477A
:1006D00008684FF22441800301EAE0707047486ADD
:1006E000800744BF49F6404070470020704700BF74
:1006F0000010024002030405060708090A0B0C0D4E
:100700000E0F1010010200002DE9FC410446007894
:10071000A24EC00756D0B069C0000BD4B0694FF0EC
:10072000010840F08050B061B06900F08050019045
:10073000019801E04FF000082D4F3868C00510D433
:10074000386840F480703860FFF7E0FE054638688E
:10075000C00506D4FFF7DAFE401B6428F7D9032052
:1007600042E0F06910F440701ED0616801F44071FD
:10077000884219D01F49F06901220A6000220A60EC
:1007800020F44071C007F1610ED0FFF7BFFE0546AF
:1007900041F28837F069800706D4FFF7B7FE411BA6
:1007A0000320B942F6D91FE0F0696168B8F1000F83
:1007B00020F4407040EA0100F0611EBFB06920F0F3
:1007C0008050B0612068810705D53168A26821F4A6
:1007D000404111433160C00605D53068E16820F41E
:1007E000800008433060002002B0BDE8F08100BF07
:1007F00000700040400442422DE9F843002800F018
:100800008E80884648490446086800F00700404545
:100810000AD2086820F0070040EA0800086008686B
:1008200000F0070040457AD120685C4B894681077B
:1008300011D5410742BF196841F4E0611960010711
:1008400042BF196841F4605119601968A26821F02B
:10085000F00111431960C0072AD06068012804D153
:1008600053F8041C890309D459E053F8041C0228E6
:1008700002D1890102D452E0890750D519681D467A
:1008800021F0030108431860FFF740FE064641F2DD
:100890008837286861682B4600F00C00B0EB810FA8
:1008A00006D0FFF733FE801BB842F2D9032037E0B1
:1008B000D9F8000000F0070040450DD9D9F8000034
:1008C00020F0070040EA0800C9F80000D9F800004D
:1008D00000F00700404522D12068410705D519687E
:1008E000E26821F4E06111431960000706D5186839
:1008F000216920F4605040EAC10018601C4600F0F5
:1009000031F82168094AC1F30311515CC840F2492A
:10091000086008480068FFF713FE002000E001208F
:1009200001B0BDE8F08300BF00200240AA26000805
:100930000C00002008000020E7481849084A006819
:100940000968C1F30221515CC8407047E24813496D
:10095000034A00680968C1F3C221515CC84070476E
:10096000BA26000810B50D4C0D48226802F00C03A1
:10097000082B18BF10BDC2F383430AA1CB5CD1037F
:1009800002D40D48584310BD21680AA25843C1F350
:100990004041515CB0FBF1F010BD00BF04100240BB
:1009A00000127A0002030405060708090A0B0C0D61
:1009B0000E0F10100102000000093D002DE9FC415E
:1009C000002800F0408104460078C14EC0074AD09C
:1009D000706800F00C00042817D0706800F00C005C
:1009E000082802D17068C0030FD4606898B1B0F5D0
:1009F000803F06D03168B0F5A02F21D141F480208E
:100A00003060306840F4803020E0306880032AD5C0
:100A1000606840BB17E1306820F480303060306897
:100A200020F480203060FFF771FD054630688003B8
:100A300019D5FFF76BFD411B03206429F6D903E1AB
:100A400021F480303060306820F480203060FFF77F
:100A50005DFD05463068800305D4FFF757FD401B58
:100A60006428F7D9D1E0207880072BD5706810F082
:100A70000C0F07D0706800F00C00082809D17068CE
:100A8000C00306D43068800715D52069012812D02C
:100A9000D9E021698F4800297CD001210160FFF74E
:100AA00035FD05463068800705D4FFF72FFD401B54
:100AB0000228F7D9A9E03068616920F0F80040EA1F
:100AC000C1003060207800072ED5A06978B1814838
:100AD0000121C0F88014FFF719FD0546706A8007F0
:100AE00015D4FFF713FD401B0228F7D98DE0794894
:100AF0000021C0F88014FFF709FD0546706A8007E1
:100B000012D5FFF703FD401B0228F7D97DE072489C
:100B10004FF4FA510068B0FBF1F0019000BF01986A
:100B2000411E00280191F9D12078400776D5F0695F
:100B3000C0000BD4F0694FF0010840F08050F06124
:100B4000F06900F080500090009801E04FF000083C
:100B5000624F3868C0050FD4386840F48070386040
:100B6000FFF7D4FC05463868C00505D4FFF7CEFC76
:100B7000401B6428F7D948E0E068D8B1012805D0C7
:100B8000316A05282DD141F004003062306A40F00E
:100B900001002CE000210160FFF7B8FC0546306839
:100BA00080077FF58FAFFFF7B1FC411B03200229BF
:100BB000F5D949E0306A20F001003062306A20F057
:100BC00004003062FFF7A2FC054641F28837306A24
:100BD00080071CD5FFF79AFC411B0320B942F6D9C8
:100BE00032E021F001003062306A20F0040030620F
:100BF000FFF78CFC054641F28837306A800706D43F
:100C0000FFF784FC401BB842F7D903201CE0B8F181
:100C1000000F1EBFF06920F08050F061E769002FDF
:100C200053D0706800F00C00082810D1012F0AD0B2
:100C30007068216A00F480328A4204D1616A00F44B
:100C40007010884241D0012002B0BDE8F0812149F6
:100C5000002088460866FFF759FC0546022F0AD196
:100C600047463068800110D5FFF750FC411B032038
:100C70000229F6D9E8E73068800126D5FFF746FC5F
:100C8000411B03200229F6D9DEE7206AB0F5803F38
:100C900005D17168A26821F4003111437160716857
:100CA000626A104321F474110843706001203866B1
:100CB000FFF72CFC04463068800106D4FFF726FCC1
:100CC000011B03200229F6D9BEE70020BCE700BFC4
:100CD00000100240000042420C0000200070004062
:100CE000B0B5F0B30446407C20B900202074204603
:100CF00000F044F802206074204600F025F960BB43
:100D0000204600F0EDFF40BB2168486820F0070056
:100D100048601948A2681AB1436823F00103436090
:100D2000036823F460731A4302606068421C06D1B2
:100D300001200125FFF784FC80B1216801388A6811
:100D400022F00F0242EA10428A60CA6860F30F0282
:100D50002046CA6000F0DCFF30B101250420607439
:100D600000E001252846B0BD40F201100025A4F89E
:100D70000D000120E573F2E72C6C004000680B4980
:100D8000884218BF7047E0B5FFF754FC0848016877
:100D900041F0006101600121006800F000600190F5
:100DA000019804480160BDE88C407047002800406D
:100DB0001C1002403C04424270B504460120002C45
:100DC0005AD00D46002957D0217C0220012953D04A
:100DD00060740120002A2074E87817D000F00F0119
:100DE0000009AA7800EB800001EB400002F00F033D
:100DF0001209697802EB820203EB420201F00F0351
:100E0000090901EB810103EB410101E06978AA784E
:100E1000A2736173E073C0B2C9B2D2B200F0A2FF94
:100E200020732870204600F08CFF144988421FD39D
:100E3000444EB0FBF6F101FB16052046294600F0B2
:100E4000D1FF28B10020207404206074012070BDFF
:100E50002068016A406A80B240EA0140411C07D024
:100E6000A84205D28119204600F0A8FF0028E9D148
:100E7000002001212074617470BD00BF905F0100EB
:100E8000B0B504460120002C5BD0002959D0237C4A
:100E90000220012B55D060740120002A20740878AC
:100EA00020D000F00F02000900EB800002EB4000B0
:100EB0004FF46162C0B250434A78897802F00F0360
:100EC000120902EB820203EB4202D2B2C2EB02121F
:100ED00000EB820001F00F02090901EB810102EB36
:100EE000410108E04FF4616250434A788978C2EBCF
:100EF000021200EB8200C9B245182046294600F0D4
:100F000071FF28B100202074042060740120B0BD5E
:100F10002068416821F005014160016A406A80B2A1
:100F200040EA0140411C08D0A84206D205490144CC
:100F3000204600F043FF0028E4D100200121207466
:100F40006174B0BD80510100B0B5B8B1044600680D
:100F5000416821F008014160FFF7D8FA0546206892
:100F60004068000744BF0020B0BDFFF7CFFA401B28
:100F7000B0F57A7F84BF0320B0BDF0E70120B0BD9B
:100F800070B5B8B3002605464FF0000C866290F8A5
:100F9000510030B9284685F8506000F02FF8D5F898
:100FA00028C0022185F8511029680A6822F0400201
:100FB0000A60D5E90123D5E903041A4310436A699D
:100FC00020431043AA6902F400731843EB691843E5
:100FD0002B6A184340EA0C000860042000EA124023
:100FE0004860C86920F40060C86101206E6585F81A
:100FF000510000E00126304670BD0000FEB50146FC
:101000000020CDE90400CDE902001248096800F58E
:10101000205291421BD110490A6842F480520A6062
:101020000A6802F480520192019A0A6842F00402AE
:101030000A60096801F004010191019903210591F9
:1010400002210391A021029102A9FFF787F906B0BE
:1010500080BD00BF00080140181002402DE9F84390
:10106000044690F85000012801D10220A4E04FF07E
:1010700001091D4616460F4684F85090FFF746FAC0
:10108000804694F85100012854D10120002F00F02F
:101090008E80002E00F08B800320731E84F8510098
:1010A0000020B3FA83F36065E686A6862763A087EF
:1010B000A063C4E91000E0875B09A1682068B1F56E
:1010C000004F02BF016841F4804101600168490698
:1010D0005EBF016841F0400101606168E268B1FAF9
:1010E00081F1B2F5006F4FEA511141EA030123D1BA
:1010F00031B137F8021BC1602763E08E0138E0860A
:101100006E1C13E020688168890707D4FFF7FEF999
:1011100066B1A0EB0800A84208D347E0216B31F884
:10112000022BC2602163E08E0138E086E08E002849
:10113000E8D124E002203AE039B139780173206B1C
:1011400001302063E08E0138E0866E1C14E02068D8
:101150008168890707D4FFF7D9F96EB1A0EB0800C1
:10116000A84209D322E0216B09780173206B01307A
:101170002063E08E0138E086E08E0028E7D120462B
:101180002946424600F042FE08B120206065A06872
:1011900038B9002000902068C168009180680090F4
:1011A0000098606D002818BF012000E00320002196
:1011B00084F8501084F8519001B0BDE8F08300002D
:1011C000411E0020B0EB116F1CBF01207047044A84
:1011D000F023516003490B70072190601160704744
:1011E00010E000E023ED00E07047000010B5D0F8FB
:1011F00000E00446DEF80010DEF80C20DEF81430C3
:101200005FEA017C50D002F4907003F00103C01833
:1012100052D0C8071FBF12F48070E06B40F001008D
:10122000E063480704D51BB1E06B40F00200E063C7
:10123000880704D51BB1E06B40F00400E063BCF10B
:10124000000F04D51BB1E06B40F00800E063E06BD9
:1012500000286ED002EA0100800604D5204600F086
:10126000D6FED4F800E0DEF81400E16B00F0400098
:1012700001F0080140184CD0204600F0BBFE206869
:101280004169490640D5416921F040014161606BE7
:10129000D0B32F494163FEF7CDFF002849D0606BE2
:1012A000416BBDE81040084711408A0605D520462D
:1012B000BDE8104000F0ABBE114008060FD4480650
:1012C00037D5DEF80C0020F04000CEF80C002020CE
:1012D00084F839002046BDE8104000F0FAB994F8CF
:1012E0003900212825D1A068216AB0F5805F16D188
:1012F00008886FF35F20CEF804002069002814BF2F
:10130000481C881C20620FE02046BDE81040FFF713
:101310006BBF2046FFF768FF0020E06310BD481C4C
:1013200020620878CEF80400E08C0138E0840004E4
:1013300000D010BDDEF80C0020F08000CEF80C00CC
:10134000DEF80C0040F04000CEF80C0010BD00BFED
:10135000E91F000850B310B5044690F8390028B9C9
:10136000002084F83800204600F022F8242084F879
:1013700039002068C16821F40051C160204600F0A6
:1013800083FE2068016921F490410161416921F0E7
:101390002A014161C16841F40051C160002020214F
:1013A000E06384F8391084F83A1010BD01207047CA
:1013B00070B586B000263849CDE90466CDE90266ED
:1013C0000068884233D03549884263D13448354C6F
:1013D00002AD016841F480410160016801F480417F
:1013E00001910199016841F00401016029460068FA
:1013F00000F0040001900198032005900220039062
:101400004FF4007002902046FEF7A8FF0020294606
:10141000CDE903004FF4806002902046FEF79EFF66
:10142000252001210022FFF7D7F8252030E01C48B5
:1014300002AD416841F480214160416801F480219E
:1014400001910199016841F0080101602946006895
:1014500000F00800019001980320059002200390FD
:101460004FF4806002900F4800F580642046FEF73C
:1014700075FF4FF40060CDE90366294602902046CF
:10148000FEF76CFF272001210022FFF7A5F8272097
:10149000FFF794F806B070BD0048004000380140E6
:1014A00018100240000801402DE9F041044690F870
:1014B0003A0020280AD10E460120002945D01746BF
:1014C000002A42D094F83800012802D10220BDE859
:1014D000F08100201D46E063012084F838002220BE
:1014E00084F83A00FFF712F88046E785A78523E0E5
:1014F000E08D202142462B460138E0852046A76832
:1015000000F004FEB7F5805F08D100BB20682169B8
:10151000406869B1C0B226F8010B0DE0B8B9206887
:101520002169406809B100F07F0006F8010B03E073
:101530006FF35F2026F8020BE08D0028D8D1002041
:10154000202184F8380084F83A10BDE8F0810320A7
:10155000BDE8F081034690F83A00202806D101202A
:10156000E9B1E2B193F83800012801D102207047B7
:101570000020DA85D8639A859962222183F83800A1
:1015800083F83A101968CA6842F48072CA604A69DE
:1015900042F001024A61CA6842F02002CA60704704
:1015A00010B51B4988420DD01A49884218BF10BD9A
:1015B000194C174801220A23214600F033F8154838
:1015C00021461FE015480078F02813D1144CF02074
:1015D00009226423E0740E4804F11401FFF764FF4C
:1015E000207DD4F8151004EB80008162D4F8191026
:1015F000C16105E00748094901220A2300F012F8F9
:10160000034806490122BDE81040FFF7A3BF00BF11
:1016100028000020F80000203C01002010000020DD
:10162000680000202DE9F041044690F83900202898
:101630000AD10E460120002949D01746002A46D07B
:1016400094F83800012802D10220BDE8F081002082
:101650001D46E063012084F83800212084F8390019
:10166000FEF754FF8046E784A7841DE0E08C8021CC
:1016700042462B460138E0842046A76800F046FD2C
:10168000B7F5805F0BD1C8B9318820686FF35F214F
:1016900041602069002814BF0136023604E068B9B1
:1016A000206816F8011B4160E08C0028DED120463E
:1016B000402142462B4600F029FD10B10320BDE831
:1016C000F0810020202184F8380084F83910BDE82A
:1016D000F0817047FEE7FEE77047000070B5614D8E
:1016E0000024E0B2072888BF70BDA4F1500000219B
:1016F0000026C0B2A84702200021A84710200021E0
:10170000A84704E00020012100F03CF9013670B246
:101710000028F7DA0134E4E7B0B5084CF54D602055
:1017200000212246A847602004212246A8476020C5
:10173000022122462B46BDE8B0401847B32C0008D2
:10174000B0B53B4C3B4D4FF4804101222046A847A9
:101750006420FEF7BDFD20464FF480410022A847DB
:10176000C820FEF7B5FD20464FF480410122A8476E
:101770003C4CAE200021A04702200021A0471020B1
:101780000021A04740200021A04781200021A04740
:10179000CF200021A047A1200021A047C820002180
:1017A000A047A6200021A047A8200021A0473F2055
:1017B0000021A047D3200021A04700200021A047FE
:1017C000D5200021A04780200021A047D92000215A
:1017D000A047F1200021A047DA200021A0471220D5
:1017E0000021A047DB200021A04740200021A04786
:1017F00020200021A04702200021A0478D200021A9
:10180000A04714200021A047A4200021A047A62023
:101810000021A047AF200021A047AF200021A04712
:10182000FFF75CFF00200021BDE8B04000F004B8E5
:101830000010014003050008B0B50446A1F15000B6
:10184000084D0021C0B2A84702341020002140EA10
:101850001410A84704F00F0000212A46BDE8B0404C
:10186000104700BF851900082DE9F843044640B22F
:101870000D4616460028B8BF0235B8BF0024E9B2AD
:101880002046FFF7D9FFA6F12000DFF848800027A7
:10189000C0B208EB00164FEA001904E0F05D012128
:1018A00000F070F80137082FF8D1681CC1B220464B
:1018B000FFF7C2FF49F00800002508EB0004082DDF
:1018C00008BFBDE8F883605D012100F05BF80135D9
:1018D000F5E700BFC22600082DE9F84F07460A9831
:1018E0001C4690468B46A3F1010900264FF0000AE2
:1018F00045080020B44208BFBDE8F88FC04320442B
:10190000C1B20A2000F0BAFEB8FBF0F00A21BAF129
:10191000000FB0FBF1F101EB8101A0EB410104D11B
:10192000B14502DD71B14FF0010A05FB067041F0CF
:101930003001CAB2C0B25946FFF796FF711C701C45
:101940000E46D7E705FB067059462022C0B2FFF7C6
:101950008BFF4FF0000AF1E7F8B514460D46064636
:1019600000270AE0F0B2E9B2FFF77EFF0836013740
:10197000F0B2782884BF02350026F8B2225C002A33
:10198000F0D1F8BDE0B58DF80700084800294FF008
:1019900010010CBF00220122FEF7B3FD04480DF137
:1019A000070101220123FFF759FB8CBD000801400C
:1019B000A00000202DE9F8430446FFF7ADFE4CB32C
:1019C000174E15A2602000210025B04715A2602007
:1019D00002214FF00208B04713A260200421B04753
:1019E00001274FF00809682612E007FA05F02042A7
:1019F0000DD0CDF8009008EA4500C5F3460201235A
:101A0000811C06EBC2000132C0B2FFF765FF013551
:101A1000062DEAD1BDE8F8834F564552000000007C
:101A20005919000854000000480000002DE9F8434F
:101A30000646DDE9080499468846A8B117461C4ABF
:101A400030200421FFF788FF1025202004213A468A
:101A500002230095FFF740FF36200421324602237F
:101A60000095FFF739FF04E0124A20200421FFF718
:101A700073FFACB10E4A20200621FFF76DFF102442
:101A8000202006214A4602230094FFF725FF362036
:101A90000621424602230094FFF71EFFBDE8F883AB
:101AA000044A20200621BDE8F843FFF755BF00BFD8
:101AB000B22C0008B82C000810B50E4C0BA2002068
:101AC0000021A0470CA200200221A0470CA2602008
:101AD0000621A0470BA208200421A0470AA2082043
:101AE00006212346BDE81040184700BF547C433A06
:101AF0000000000059190008527C253A000000003F
:101B00004E443A0052543A0052483A002DE9F84FF8
:101B1000244E90468A460746322000213246FFF77F
:101B20001BFF322002213246FFF716FF1E493846BE
:101B30008B46FEF7F7FAFEF740FB4FF064091B4CAB
:101B40001026074600210223B0FBF9F5202000965D
:101B5000EAB2A04705FB197000210223009682B269
:101B60003620A04750465946FEF7DCFAFEF725FB23
:101B7000B0FBF9F705462020022102230096FAB2B5
:101B8000A04707FB195002210223009682B236209B
:101B9000A04778200621424601230096A047BDE8D1
:101BA000F88F00BFBE2C00080000C842D9180008FA
:101BB000BCB5054623200DF106040029ADF806004A
:101BC0004FF03E00ADF8040001A808BF0446012D07
:101BD00008D1002004212246FFF7BEFE274A00203C
:101BE000062109E0254A00200421FFF7B5FE022D59
:101BF0000AD1002006212246FFF7AEFE1F4A5820D8
:101C00000621FFF7A9FEBCBD1C4A00200621FFF7F4
:101C1000A3FE032DF2D1582006212246F1E700BF92
:101C20007CB50E4623210DF10605002A4FF006046F
:101C3000ADF806104FF03C01ADF8041001A908BF43
:101C40000D46012808BF0424022E05D14820214654
:101C50002A46FFF781FE0AE0084A48202146FFF79E
:101C60007BFE012E03D1302021462A4602E0034AA2
:101C700030202146FFF770FE7CBD00BFBC2C000861
:101C8000FEB5FFF719FF114FD54D7A7805EB8200AD
:101C9000C169806AFFF73AFFAB7A2A7A2C78AE786E
:101CA0002879A979CDE90046FFF7C0FE697B38782D
:101CB000FFF77EFF297B19B1AA7B3878FFF7B0FFC9
:101CC0006420BDE8FE40FEF703BB00BF000000201B
:101CD00080B5FFF735FDBDE88040FFF7FFBC7047DA
:101CE000B0B50446FEF712FC054607E0FEF70EFC11
:101CF000401BB0F57A7F84BF0320B0BD20684168E7
:101D00008906F3D5416841F0100141600020B0BD63
:101D1000B0B504460068416821F010014160FEF74B
:101D2000F5FB054620684068800644BF0020B0BD32
:101D3000FEF7ECFB401BB0F57A7F84BF0320B0BDFB
:101D4000F0E702689169D2F81CC0936983EA010048
:101D500000041CBFD2F81CC019461FFA8CF040EAE0
:101D600001407047172300EB020C0922022901FBF6
:101D700003F3B3FBF2F2624402F2D47207D800F22A
:101D8000CF706421B0FBF1F1C1EB900109E000F5E7
:101D9000FA6064216FF00103B0FBF1F103EB9003F3
:101DA000591A4FF4C873B0FBF3F0084407211044EC
:101DB000B0FBF1F1C1EBC101401A7047B0B50D465F
:101DC0000446FFF78DFF08B10120B0BD2068290C43
:101DD0000162A9B241622046FFF79AFF002818BFAE
:101DE0000120B0BDB0B50D460446FFF779FF08B13C
:101DF0000120B0BD2068290C8161A9B2C1612046D3
:101E0000FFF786FF002818BF0120B0BD10B51346AC
:101E10000A468021044600F00AF800280FBF00207F
:101E2000606D40F02000606518BF032010BD2DE9F3
:101E3000F041984616460F460446551C20688068B7
:101E40003840B8421CBF0020BDE8F081002DF5D01D
:101E5000FEF75CFBA0EB0800B042EFD320684168BE
:101E600021F0E00141606168B1F5827F0AD1A1688B
:101E7000B1F5004F02D0B1F5806F03D1016821F0B8
:101E800040010160A16AB1F5005F07D1016821F44A
:101E900000510160016841F400510160002084F8A4
:101EA0005000012084F851000320BDE8F081704704
:101EB000FEF730BB70B594B000244FF460100225DB
:101EC00001260D94CDE90B44CDE90344CDE9124040
:101ED000102011951096CDE90E600A200A900AA8EC
:101EE000FEF76CFD4FF480600994022108900F20EA
:101EF000CDE90654059005A8FEF77EFC4FF400706E
:101F0000CDE9016001A8FEF7FFFB14B070BD000031
:101F10000E480F4A016841F001010160416811401B
:101F20000C4A4160016811400160016821F4802180
:101F30000160416821F4FE0141604FF41F0181609E
:101F400005484FF000610160704700BF001002407B
:101F50000000FFF8FFFFF6FE08ED00E02DE9F84F66
:101F60001F4800244FF0010841794678C77890F85F
:101F7000079090F80BA090F809B000F120050091AF
:101F80001DE06EB1E868FEF7FFF8834502DC0099BA
:101F9000814205DCA8F10100012101FA00F00443AF
:101FA00057B12868FEF7F0F8824501DC814503DC73
:101FB000012000FA08F00443043508F10208B8F1E2
:101FC000070FDED120064FF400510CBF0022012282
:101FD0000448FEF796FAE0B2BDE8F84FFFF7EABC16
:101FE0006800002000100140406A0021C185C184C2
:101FF000FFF7FAB80168CA6822F49072CA604A69A9
:1020000022F001024A61202180F83A10704790F8CE
:102010003A10222918BF70478168B1F5805F08D156
:1020200002680369816A526883B1D2B221F8012B38
:1020300010E0026901684968002A826A02F101031E
:10204000836218BF01F07F01117004E06FF35F221B
:1020500021F8022B8162C18D0139C185090400D0AC
:1020600070470168CA6822F02002CA60CA6822F478
:102070008072CA604A6922F001024A61202180F818
:102080003A10FFF78DBA000010B5044600680169E8
:10209000E26821F44051114341F20C620161D4F82D
:1020A00008C0D4E904E3C16891434EEA0C021A4324
:1020B0001143C1604169A26921F44071114341613A
:1020C0001149884202D0FEF737FC01E0FEF73EFCE2
:1020D00019214843D4E900126FF063049200B0FB69
:1020E000F2F06422B0FBF2F303FB0400322404EBB1
:1020F0000010B0FBF2F000F0F00200F00F0002EB75
:1021000003121044886010BD003801402DE9F041F1
:102110001D4690460F4604465E1C20680168394003
:10212000B94204BF0020BDE8F081002EF5D035B1E2
:10213000FEF7ECF9A0EB0800A842EED92068C168D0
:1021400021F4D071C160416921F001014161202079
:10215000002184F8390084F8381084F83A0003200C
:10216000BDE8F081AE48FFF741B800BF1448FFF763
:102170003DB800BFFEE7000070B5104E6420B047C8
:102180000F4C134D0FA10A224FF47A732046A84733
:102190006420B0470FA1204608224FF47A73A84765
:1021A0006420B0470EA120460C224FF47A73A84752
:1021B00064203146BDE87040084700BFD1020008E6
:1021C0002800002041542B47524F55503D3200000B
:1021D0002516000841542B43483D313100000000D2
:1021E00041542B5458504F5745523D340000000085
:1021F00010B5074C00F00F03044AB0F1FF3F234431
:10220000C8BF83180801187010BD00BF00E400E0CB
:1022100014ED00E086B0FEF787F9FFF74BFE784833
:10222000794F00224FF400580026016841F0100158
:102230000160016801F0100101910199016841F00C
:1022400004010160016801F0040101910199016834
:1022500041F0080101604FF40051006800F00800EF
:1022600001900198674800F5684504462846B8473C
:1022700028464FF4804101224FF0010AB84704F587
:102280006049102101224846B84704F564440421FE
:1022900001222046B847022001AFCDE90360CDE915
:1022A000018ADFF8688128463946C0474FF0030BA2
:1022B0004FF480403946CDF810B0CDE902A6019028
:1022C0002846C0471020CDF810B0CDE902A6394607
:1022D0004FF0100B01904846C047022504203946B4
:1022E0000495CDE902A601902046C04748480395D1
:1022F00039464FF0020902904FF470400190204699
:10230000C047282001210122FEF766F92820FEF7A8
:1023100055F9404C4FF0FF30C4E9020639482546D4
:1023200045F8040F80462846FEF7DAFC05A9284642
:1023300001228DF81660ADF81460FEF7A1FD364855
:1023400001A9012201902846FEF736FD33480A21F3
:102350004FF400724FF4827308F58437C0E90866C1
:10236000C0E90A611821C0E90073C0E90266C0E94A
:10237000049AC0E90621FEF703FE29480C254FF414
:10238000E13708F58831C0E90017C0E90266C0E905
:102390000465C0E90666FEF7DDFFC4E90776C4E917
:1023A0000966C4E90B5608F500502546666345F8F2
:1023B000180F2846FEF7CEFFFFF78AFC19A230203F
:1023C0000221FFF7C9FA382004210A220223CDF89E
:1023D00000B0FFF781FA4FF4FA60FDF779FFFFF7DD
:1023E0007DF9284621460122FFF7B4F8FFF7C4FE25
:1023F000FFF762FBFFF744FCFFF7B0FDFAE700BF11
:102400001810024000280040030500085D03000882
:10241000000011101000002001010100A0000020A8
:10242000F80000205445414D00000000B0B5914C2B
:10243000607B072800F2BA80DFE800F0044D2D5AD7
:102440003A748B9F207C012805D18B480178013993
:1024500098BF03210170607C012806D186480122C3
:102460000178032938BF4A1C0270E07B012840F044
:102470009D80814800780228607300F0F280012876
:1024800040F094800020207360786179627A217135
:1024900022722070B0BD207BE17B002800F0878095
:1024A000012940F08B800121A173411D617385E0FA
:1024B000607C012805D1207A0021632838BF411CA7
:1024C0002172207C01283FD1207A411E002808BFBC
:1024D0006321217238E0207BE17B002800F09480AA
:1024E000012940F098800121A173C11C617392E021
:1024F000207C012805D160484178013998BF03212B
:102500004170607C012806D15B4801224178032993
:1025100038BF4A1C4270A07C012802BF00206073B3
:10252000B0BDB0BD607C012805D1207900216328B1
:1025300038BF411C2171207C012805D12079411E22
:10254000002808BF63212171A07C01282ED1012021
:102550002AE0607C012805D1A07A0021632838BFD9
:10256000411CA172207C012819D1A17A207A01395D
:10257000002808BF6321A17211E0607C012805D109
:10258000A0790021632838BF411CA171207C01285B
:1025900005D1A079411E002808BF6321A171A07C4C
:1025A000012818BFB0BD0220A4F80D00B0BD01295C
:1025B00004D1A178B1FA81F14909A170227CA178F6
:1025C000012A04D119B1002818BF0138207341B184
:1025D000617C012905D1C1B20222022938BF421C07
:1025E0002273A07C0128E1D1234800250021257316
:1025F000A27B0078FFF714FB6573A078A179A27A1B
:10260000E171E272E070B0BD012904D12178B1FA24
:1026100081F149092170227C2178012A04D119B164
:10262000002818BF0138207341B1617C012905D110
:10263000C1B20222022938BF421C2273A07C0128A9
:10264000B4D10D48002500212573A27B0078FFF747
:10265000E7FA657320782179227A6171627260707D
:10266000B0BD00202073E078E179E27AA171A27216
:10267000A070B0BD680000200000002002460120CC
:102680000B0608BF704750430139F9E702E008C85C
:10269000121F08C1002AFAD170477047002001E0DC
:1026A00001C1121F002AFBD170470000000000008A
:1026B00000000102030406070809000000000102EF
:1026C0000304000000000000000000000000000003
:1026D0000000000000F8000000000000003330009F
:1026E000000000100C06100C0600000000000000A6
:1026F000000040C07840C0784000043F04043F041C
:102700000400007088FC08300000001820FF211E23
:102710000000F008F000E018000000211C031E215A
:102720001E0000F00888700000001E2123241927D5
:10273000211010160E000000000000000000000034
:102740000000000000E0180402000000000718204C
:10275000400000020418E0000000004020180700BC
:102760000000404080F0804040000202010F010262
:102770000200000000F0000000000101011F010143
:102780000100000000000000000080B070000000A8
:102790000000000000000000000000010101010134
:1027A00001010000000000000000003030000000C7
:1027B000000000000000806018040060180601009E
:1027C000000000E010080810E000000F10202010AA
:1027D0000F00001010F8000000000020203F202013
:1027E00000000070080808887000003028242221AA
:1027F0003000003008888848300000182020201160
:102800000E000000C02010F8000000070424243F40
:10281000240000F8088888080800001921202011E9
:102820000E0000E0108888180000000F1120201111
:102830000E0000380808C83808000000003F0000FB
:1028400000000070880808887000001C22212122E6
:102850001C0000E010080810E000000031222211E6
:102860000F00000000C0C000000000000030300079
:1028700000000000008000000000000080600000F8
:102880000000000080402010080000010204081031
:102890002000404040404040400004040404040440
:1028A00004000008102040800000002010080402EE
:1028B0000100007048080808F000000000303601F0
:1028C0000000C030C828E810E000071827242314AF
:1028D0000B000000C038E0000000203C230202276B
:1028E000382008F8888888700000203F20202011B8
:1028F0000E00C030080808083800071820202010F3
:10290000080008F808080810E000203F20202010E8
:102910000F0008F88888E8081000203F20202320B6
:10292000180008F88888E8081000203F20000300FD
:102930000000C03008080838000007182020221EB8
:10294000020008F808000008F808203F21010121D2
:102950003F20000808F8080800000020203F202041
:10296000000000000808F8080800C08080807F0090
:10297000000008F888C028180800203F20012638E9
:10298000200008F8080000000000203F2020202040
:10299000300008F8F800F8F80800203F003F003F3A
:1029A000200008F830C00008F808203F2000071871
:1029B0003F00E01008080810E0000F102020201051
:1029C0000F0008F808080808F000203F2101010165
:1029D0000000E01008080810E0000F182424385008
:1029E0004F0008F8888888887000203F2000030C7A
:1029F0003020007088080808380000382021212283
:102A00001C00180808F8080818000000203F2000E3
:102A1000000008F808000008F808001F2020202007
:102A20001F000878880000C83808000007380E0129
:102A30000000F80800F80008F800033C0700073C15
:102A40000300081868808068180820302C03032CC5
:102A500030200838C800C83808000000203F200097
:102A6000000010080808C838080020382621202057
:102A70001800000000FE020202000000007F40403B
:102A80004000000C30C000000000000000010638CB
:102A9000C00000020202FE000000004040407F0033
:102AA0000000000004020202040000000000000018
:102AB0000000000000000000000080808080808016
:102AC00080800002020400000000000000000000FE
:102AD0000000000080808080000000192422222253
:102AE0003F2008F8008080000000003F11202011E6
:102AF0000E000000008080800000000E11202020C9
:102B00001100000000808088F800000E11202010C5
:102B10003F200000808080800000001F22222222AF
:102B20001300008080F0888888180020203F202033
:102B300000000000808080808000006B949494935B
:102B4000600008F8008080800000203F2100002005
:102B50003F2000809898000000000020203F2020A7
:102B60000000000000809898000000C08080807FF6
:102B7000000008F8000080808000203F24022D30F3
:102B80002000000808F8000000000020203F20205E
:102B900000008080808080808000203F20003F20D7
:102BA000003F8080008080800000203F21000020C6
:102BB0003F200000808080800000001F2020202017
:102BC0001F00808000808000000080FFA120201175
:102BD0000E000000008080808000000E112020A0E8
:102BE000FF80808080008080800020203F212000A6
:102BF0000100000080808080800000332424242491
:102C00001900008080E0808000000000001F20206C
:102C100000008080000000808000001F2020201025
:102C20003F20808080000080808000010E300806F8
:102C3000010080800080008080800F300C030C3009
:102C40000F0000808000808080000020312E0E3137
:102C50002000808080000080808080818E70180637
:102C6000010000808080808080000021302C2221A3
:102C7000300000000000807C020200000000003FE5
:102C8000404000000000FF00000000000000FF00C6
:102C900000000002027C800000000040403F000075
:102CA0000000000601010202040400000000000010
:102CB0000000202020202000204F464620002E002B
:102CC000E02C000800000020100000008C26000806
:102CD000F02C000810000020300500009C260008A1
:102CE0000101000001000000100000000024F400B9
:04000005080000ED02
:00000001FF
