:020000040800F2
:10000000C00600200101000843240008E520000884
:1000100041240008F9060008BD2A0008000000007D
:10002000000000000000000000000000E9240008BB
:10003000FB06000800000000452400081D260008FB
:100040001B0100081B0100081B0100081B01000820
:100050001B0100081B0100081B0100081B01000810
:100060001B0100081B0100081B0100081B01000800
:100070001B0100081B0100081B0100081B010008F0
:100080001B0100081B0100081B0100081B010008E0
:100090001B0100081B0100081B010008FD060008E9
:1000A0001B010008B52600081B0100081B01000801
:1000B0001B0100081B0100081B0100081B010008B0
:1000C0001B0100081B0100081B0100081B010008A0
:1000D0001B010008AD2A00081B010008B52A000812
:1000E0001B0100081B0100081B010008DFF80CD0F1
:1000F00000F0F0FA00480047152C0008C006002068
:100100000648804706480047FEE7FEE7FEE7FEE7B1
:10011000FEE7FEE7FEE7FEE7FEE7FEE769260008EA
:10012000ED000008202A04DB203A21FA02F0002129
:10013000704721FA02F3D040C2F1200291400843F7
:1001400019467047D2B201E000F8012B491EFBD2DC
:1001500070470022F6E710B513460A4604461946D2
:10016000FFF7F0FF204610BDF0B480EA0102D40F83
:100170004200B2EB410F02D20246084611464A0045
:1001800042D0C30DDDB2C1F3C752AD1A202D35DA0E
:10019000C1F3160141F4000204B15242C5F1200638
:1001A00002FA06F12A411044B3EBD05F23D0C4B168
:1001B000012DA0EBC35009DCF0BC4FF0004202EA75
:1001C000C352DBB200F5000000F0F9B9400000F1C5
:1001D000807000EBC350A0F1807040EAD1704900FC
:1001E00009E0490841EAC071A0EBC35000F50000E6
:1001F000400800EBC350F0BC00F0D8B961420122C6
:1002000002EB4101001BF6E7F0BC704781F00041B2
:10021000AAE780F00040A7E780EA010210B502F0EB
:100220000043400022D04A001FD0010E01EB1261B2
:10023000C0F35600C2F3560240F4000042F400023C
:10024000A0FB022000047F39140400D0401C50EAB7
:10025000124001D44000491EC2B20C0604EBD0107B
:10026000401C4008802A02D003E0002010BD20F08E
:100270000100002900DA0020184310BD2DE9FE4FCF
:10028000804681EA0300C00F0C46009021F0004137
:1002900023F00045B8EB0200A94105D240462146B3
:1002A00090461C460B46024623F00040104347D0C0
:1002B000270DC7F30A00C3F30A510290401A0190B8
:1002C00040286BDAC3F3130040F4801B0098924679
:1002D00020B10023D2EB030A63EB0B0B01985946C4
:1002E000C0F14002504600F040F906460D46504627
:1002F0005946019A00F048F910EB080061410024CA
:1003000087EA115284EAE7731A4340D0009A62B335
:10031000019A012A4FEA075215DC001B61EB02012A
:100320004FF0004202EA0752CDE90042001C41F5BD
:10033000801132462B4600F07FF903B0BDE8F08F04
:1003400040462146F9E7001B61EB0201001C41F524
:10035000801300185B412018A2F5001747EB03013A
:1003600040EAD570B6196D4111E06D084FEA3606C6
:1003700045EAC0754FEA0752001B61EB0201001C01
:1003800041F5801149084FEA3000001951413246C9
:100390002B4603B0BDE8F04F00F03FB900980122B2
:1003A00040000023D0EB020263EBE073009821468B
:1003B0004FEAE074B8EB000061EB0401E9E783F079
:1003C00000435BE781F0004158E72DE9FE4F81EAE9
:1003D000030404F0004421F0004100944FF0000BAE
:1003E00023F0004350EA01045ED052EA03045BD0DC
:1003F000C3F30A54C1F30A552C44A4F2F334019414
:10040000A0FB0254C1F3130141F48011C3F31303A1
:1004100043F4801301FB024400FB034E840A970A55
:1004200044EA815447EA8357A4FB076802958D0A82
:1004300005FB07854FEA932C04FB0C542705029D0E
:100440004FEA065847EA1637B5EB08056EEB070C7E
:10045000870E920E47EA811742EA8312A7FB020138
:10046000B6EB0B0164EB00042B0D43EA0C335E1872
:1004700044EB1C50DA465146E7FB0201C5F3130476
:100480004FEA0B3343EA14534FEA0432019C43EA28
:100490000603A4F10C040294009CCDE900B400F022
:1004A000CBF803B0BDE8F08F00200146F9E79623B2
:1004B0000022114600F083B820F00040C10DC0F3C7
:1004C000160040F400007F2901DA002070479629C9
:1004D00003DCC1F19601C8407047963988407047E7
:1004E00000F0004230F000400AD0C10D01F560710B
:1004F000C0F3160042EA0151C20840071143704799
:1005000000200146704701F0004330B421F0004163
:1005100050EA010206D00A0DA2F56072C1F3130180
:10052000002A02DC30BC00207047440F44EAC104BA
:10053000C100E01830BC00EBC25000F037B830B555
:100540000B46014600202022012409E021FA02F591
:100550009D4205D303FA02F5491B04FA02F528442B
:10056000151EA2F10102F1DC30BD202A04DB203A85
:1005700000FA02F1002070479140C2F1200320FAF6
:1005800003F3194390407047202A06DBCB17203A2B
:1005900041FA02F043EAE07306E041FA02F3D04088
:1005A000C2F1200291400843194670470029A8BFB4
:1005B0007047401C490008BF20F00100704710B48C
:1005C000B0FA80FC00FA0CF050EA010404BF10BC41
:1005D000704749B1CCF1200421FA04F411FA0CF16E
:1005E00018BF012121430843A3EB0C01CB1D4FEAA7
:1005F00000614FEA102042BF002010BC704700EBA2
:10060000C35010440029A4BF10BC7047401C4900CF
:1006100008BF20F0010010BC704710B5141E73F124
:10062000000408DA401C41F1000192185B411A43B2
:1006300001D120F0010010BD2DE9F04D92469B46FE
:1006400011B1B1FA81F202E0B0FA80F220329046A4
:10065000FFF78BFF04460F4640EA0A0041EA0B0110
:1006600053465A46084313D0114653EA010019D0A5
:10067000C8F140025046FFF755FD05460E4650466C
:1006800059464246FFF771FF084305D0012004E0B8
:1006900020463946BDE8F08D0020054346EAE07665
:1006A0002C4337430A986305E40AA0EB08000022B4
:1006B000FD0A44EA47540A3002D500200146E9E722
:1006C000010510196941DDE9084500196941BDE8D6
:1006D000F04DA2E7064C074D06E0E06840F001034C
:1006E00094E8070098471034AC42F6D3FFF702FDB8
:1006F000B02F0008D02F0008FEE77047402000F020
:100700007FB8000090F8211002291BD102681F4B0E
:1007100011689A4221F00E011160116821F0010167
:100720001160194912D01A4B9A4211D0194B9A42B2
:1007300010D0194B9A4210D0184B9A4210D14FF456
:10074000803315E0042181630120704701230FE00D
:1007500010230DE04FF480730AE04FF4805307E05C
:1007600001F1680C4FF08073624508BF4FF48013AD
:100770000B604FF480710184416B19B180B58847DB
:10078000002080BD002070470400024008000240A5
:100790001C00024030000240440002405800024069
:1007A000B0B5044600F010F905460548611C007814
:1007B00018BF044400F008F9401BA042FAD3B0BDB2
:1007C0001800002010B5402816D10320FFF7E8FFDD
:1007D0000A4CA078002818BF10BD7348402100F0D3
:1007E000E9F8012808D16078B0FA80F0400960701B
:1007F000BDE8104001F0FABD10BD00BF2800002088
:1008000003490A68024214BF08607047FFF7DABF65
:10081000140401402DE9FC4F594A04234FF0000B0A
:100820004FF001084FF00F0E4FF0000900259042E5
:1008300008BF032300930A6832FA05F308BFBDE836
:10084000FC8F08FA05F73A4200F096804A68032ABE
:1008500016D9112A24D0122A26D04D4B9A4213D0F1
:100860004C4B9A4210D04C4B9A420DD04B4B9A4273
:100870000AD04B4B9A4207D04A4B9A4204D020E010
:10088000DFE802F00216191D8A6832B1012A14BF8E
:10089000476107614FF0080913E04FF0040910E0C9
:1008A000CA6802F104090CE0CA6802F10C0908E008
:1008B000D1F80C9005E0CA6802F1080901E04FF098
:1008C00000095A460446082D28BF203A28BF0434A0
:1008D00026680EFA02F309FA02F226EA03031A4323
:1008E0002260CA79D20647D5284A0BF00C0C134671
:1008F000126842F001021A601A680EFA0CF302F054
:10090000010201921F4A019CAC08A2F57E7656F8BE
:10091000242022EA030A244A904208D0234A904223
:1009200007D0234A009B904208BF022302E0002325
:1009300000E0012303FA0CF242EA0A0246F82420FE
:10094000104E4A68D303336854BFBB433B43336004
:100950009303736854BFBB433B437360D302B368D4
:1009600054BFBB433B439202B360074A134612682D
:1009700054BFBA433A431A600BF1040B01355AE7EE
:1009800000140140000401400C0401401810024012
:1009900000001110000012100000211000002210B1
:1009A000000031100000321000080140000C01402E
:1009B000001001408068084018BF01207047002ADD
:1009C00008BF09040161704701480068704700BF13
:1009D000BC020020B0B520B3044690F83D0028B911
:1009E000002084F83C00204600F008FB242084F816
:1009F0003D002068016821F00101016000F05EFC0B
:100A00004C494D4B00224D4D88424FF0000138BFFC
:100A10000121984238BF01226368AB4238BF0A46C1
:100A20000AB10120B0BD4649B0FBF1F221684D6822
:100A300025F03F0515434D600D6A25F03F0C414DF3
:100A4000AB4213D80132013842EA0C020A625A0062
:100A50004CF6FF73B0FBF2F001306FF31F30042847
:100A600098BF0420CA6922EA030C3AE04FF4967555
:100A7000A0F1010E6A434FF47A75B2FBF5F24CF621
:100A8000FF75013242EA0C020A62CA6922EA050CC9
:100A9000A26842B1192004255843BEFBF0F0013092
:100AA00065F31F3006E003EB4300BEFBF0F00130BE
:100AB0006FF31F30000509D052B1192004225843AA
:100AC000BEFBF0F0013062F31F3008E0012008E0C7
:100AD00003EB4300BEFBF0F001306FF31F3040F436
:100AE000004040EA0C00C8610868D4E9072320F000
:100AF000C000104348F2FF321843086088689043F2
:100B0000D4E90323184310438860C868D4E9052357
:100B100020F0FF0010431843C860086840F001004F
:100B2000086000202021206484F83D10206384F8B0
:100B30003E00B0BD80841E0000093D00A18601007A
:100B400040420F00A08601002DE9FC4B1D461746D0
:100B50008B460446FFF738FF814694F83D00202875
:100B60000ED1C14E204601221923CDF8009006F582
:100B7000702101F0F7FA18B994F83C00012803D16C
:100B8000022002B0BDE8F08B0120A6F10212DDF8D0
:100B9000288084F83C0020680168C90702BF01680A
:100BA00041F001010160016821F40061016022212E
:100BB00084F83D10102184F83E10002121646585E1
:100BC0003546618DE26267622185E16A026842F41E
:100BD000806211F5803F026018BF012932D101689F
:100BE00041F48071016020464FF00111002243461C
:100BF000CDF8009001F0B6FA08B10120C1E72069F4
:100C0000B0F5804F24D14BF00100C0B221684246BC
:100C10004B4608612046294601F0DFFA0028ECD156
:100C2000218D01294BD000295FD10020019020683F
:100C300041690191816901910199016841F4007153
:100C4000016074E00829CAD0216B1129C7D0CAE716
:100C500006202F46216842464B4600EADB1505F187
:100C6000F0000861B91D204601F0B7FA0028C4D190
:100C700020685FFA8BF142464B46016120463946B7
:100C800001F0ABFA0028B8D10020002243460190C1
:100C9000206841690191816901910199016841F4DC
:100CA0008071016020464FF00111CDF8009001F0F5
:100CB00059FA0028A1D145F0F1003546A6E7206891
:100CC000016821F480610160EFF3108072B60020AA
:100CD0000190206841690191816901910199016840
:100CE00041F40071016062B621E0206802290268C7
:100CF00013D142F400610160EFF3108072B600205E
:100D0000019020684169019181690191019901680F
:100D100021F48061016062B609E042F48061016003
:100D20000021019141690191806901900198208D14
:100D3000AF1C8DE085B2032D09D8012D23D12046AB
:100D400041464A4601F094FA002874D055E72046FF
:100D500041464A4601F08CFA00287FF44EAF2068E5
:100D60000069616A0870606A2168421C6262208DB5
:100D700001382085638D013B63854B695B0767D52F
:100D8000086910705BE02046394600224346CDF8E2
:100D9000009001F0E7F9022D18D100287FF42DAF63
:100DA000EFF3108072B62068016841F400710160B1
:100DB0000069616A0870606A01306062608D0138A4
:100DC0006085208D0138208562B634E000287FF4EC
:100DD00014AF206800224346016821F4806101605D
:100DE000EFF3108072B620680069616A08703946B6
:100DF000606A01306062608D01386085208D013845
:100E000020852046CDF8009001F0ACF900287FF451
:100E1000F4AE2068016841F4007101600069616A04
:100E20000870606A01306062208D01382085608D15
:100E30000138608562B620680069616A0870606A7E
:100E400001306062208D01382085618D0139618516
:100E500001047FF46FAF202084F83D00002084F867
:100E60003C0084F83E008CE6020001002DE9FC47BE
:100E70001F46164689460446FFF7A6FD824694F8AB
:100E80003D0020280ED15C4D204601221923CDF8CB
:100E900000A005F5702101F065F918B994F83C003F
:100EA000012803D1022002B0BDE8F0870120A5F19E
:100EB0000212DDF8288084F83C0020680168C90728
:100EC00002BF016841F001010160016821F4006185
:100ED0000160212184F83D10102184F83E1000218A
:100EE00021646785618DE26266622185E16A11F5A0
:100EF000803F18BF012913D1016841F4807101605E
:100F000020464FF0011100224346CDF800A001F029
:100F100029F920BB2069B0F5804F07D1FE2013E0EE
:100F20000829E9D0216B1229E6D0E9E706202168DB
:100F30004246534600EAD910F0300861A91D204608
:100F400001F04BF958B9FF20216800EA0900424638
:100F5000534608612046294601F03FF908B10120B7
:100F6000A1E700200190206841690191806901900A
:100F70000198208D88B320464146524601F0A7F9DA
:100F800010BB606A2168024612F8013B0B61626285
:100F9000628D013A6285228D571E27853F044B6979
:100FA00018BF13F0040308D0437802300B6160626D
:100FB000901E2085608D013860852046414652464E
:100FC00001F0A9F80028D4D0206C0428C7D12068EB
:100FD000016841F400710160C1E72068016841F4D3
:100FE00000710160202084F83D00002084F83C005E
:100FF00084F83E0057E700BF0200010010B586B03C
:101000000021CDE90411CDE90211016811488142A6
:101010001DD13B4C00F53840216841F008012160AA
:10102000216801F008010191019903210591122124
:101030000391C021029102A9FFF7ECFB606840F424
:1010400000106060606800F400100190019806B024
:1010500010BD00BF005400401A48034900780A68D8
:1010600010440860704700BFBC02002080B5904863
:10107000016841F010010160032000F071F80020C8
:1010800000F004F800F020F8002080BD70B50D4E8F
:1010900004464FF47A713078B1FBF0F09149096859
:1010A000B1FBF0F000F0FEFB01250F2C08D838B999
:1010B0004FF0FF3021460022002500F033F8746025
:1010C000284670BD1800002082B00D480222016839
:1010D00041F001010160016801F0010101910199F4
:1010E000416841F080514160406800F080500090BC
:1010F00000980448016862F31A61016002B0704709
:101100001810024004000140002808DB00F01F0115
:101110000122400902FA01F1014A42F82010704709
:1011200000E100E080B5144B1B68C3F3022CBCF156
:10113000030E8CF007034FF0FF3C38BF4FF0000E5A
:10114000042B28BF04230CFA03F399430CFA0EF383
:1011500001FA0EF19A431143BDE8804001F03CBD15
:1011600005494FF6FF030A681A4060F30A22034854
:1011700010430860704700BF0CED00E00000FA0566
:101180002DE9F843002800F08E808846484904463F
:10119000086800F0070040450AD2086820F0070000
:1011A00040EA08000860086800F0070040457AD16E
:1011B00020685C4B8946810711D5410742BF1968F9
:1011C00041F4E0611960010742BF196841F46051C0
:1011D00019601968A26821F0F00111431960C00775
:1011E0002AD06068012804D153F8041C890309D46B
:1011F00059E053F8041C022802D1890102D452E0BC
:10120000890750D519681D4621F00301084318606D
:10121000FFF7DAFB064641F28837286861682B46FB
:1012200000F00C00B0EB810F06D0FFF7CDFB801B68
:10123000B842F2D9032037E0D9F8000000F00700E7
:1012400040450DD9D9F8000020F0070040EA080019
:10125000C9F80000D9F8000000F00700404522D18D
:101260002068410705D51968E26821F4E06111435F
:101270001960000706D51868216920F4605040EA1B
:10128000C10018601C4600F031F82168094AC1F31A
:101290000311515CC840F249086007480068FFF735
:1012A000F5FE002000E0012001B0BDE8F08300BFA2
:1012B00000200240982F00081C000020E84819492F
:1012C000094A00680968C1F30221515CC8407047AF
:1012D000E3481449044A00680968C1F3C221515C1B
:1012E000C840704720000020A82F000810B50D4C02
:1012F0000D48226802F00C03082B18BF10BDC2F382
:1013000083430AA1CB5CD10302D40D48584310BDDE
:1013100021680AA25843C1F34041515CB0FBF1F08F
:1013200010BD00BF0410024000127A000203040541
:10133000060708090A0B0C0D0E0F10100102000021
:1013400000093D002DE9FC41002800F040810446E1
:101350000078C14EC0074AD0706800F00C00042825
:1013600017D0706800F00C00082802D17068C00324
:101370000FD4606898B1B0F5803F06D03168B0F501
:10138000A02F21D141F480203060306840F48030BB
:1013900020E0306880032AD5606840BB17E13068E0
:1013A00020F480303060306820F480203060FFF717
:1013B0000BFB05463068800319D5FFF705FB411B81
:1013C00003206429F6D903E121F4803030603068CD
:1013D00020F480203060FFF7F7FA0546306880037C
:1013E00005D4FFF7F1FA401B6428F7D9D1E0207843
:1013F00080072BD5706810F00C0F07D0706800F0D4
:101400000C00082809D17068C00306D43068800732
:1014100015D52069012812D0D9E021698F4800290B
:101420007CD001210160FFF7CFFA054630688007C4
:1014300005D4FFF7C9FA401B0228F7D9A9E03068A4
:10144000616920F0F80040EAC100306020780007B0
:101450002ED5A06978B181480121C0F88014FFF72A
:10146000B3FA0546706A800715D4FFF7ADFA401B42
:101470000228F7D98DE079480021C0F88014FFF7E1
:10148000A3FA0546706A800712D5FFF79DFA401B44
:101490000228F7D97DE072484FF4FA510068B0FB9A
:1014A000F1F0019000BF0198411E00280191F9D18F
:1014B0002078400776D5F069C0000BD4F0694FF072
:1014C000010840F08050F061F06900F08050009019
:1014D000009801E04FF00008624F3868C0050FD453
:1014E000386840F480703860FFF76EFA0546386857
:1014F000C00505D4FFF768FA401B6428F7D948E017
:10150000E068D8B1012805D0316A05282DD141F015
:1015100004003062306A40F001002CE000210160DC
:10152000FFF752FA0546306880077FF58FAFFFF767
:101530004BFA411B03200229F5D949E0306A20F01B
:1015400001003062306A20F004003062FFF73CFA9C
:10155000054641F28837306A80071CD5FFF734FA18
:10156000411B0320B942F6D932E021F0010030627C
:10157000306A20F004003062FFF726FA054641F297
:101580008837306A800706D4FFF71EFA401BB8423E
:10159000F7D903201CE0B8F1000F1EBFF06920F05E
:1015A0008050F061E769002F53D0706800F00C00A4
:1015B000082810D1012F0AD07068216A00F4803207
:1015C0008A4204D1616A00F47010884241D001203F
:1015D00002B0BDE8F0812149002088460866FFF787
:1015E000F3F90546022F0AD147463068800110D52D
:1015F000FFF7EAF9411B03200229F6D9E8E7306832
:10160000800126D5FFF7E0F9411B03200229F6D916
:10161000DEE7206AB0F5803F05D17168A26821F449
:101620000031114371607168626A104321F47411D2
:101630000843706001203866FFF7C6F90446306839
:10164000800106D4FFF7C0F9011B03200229F6D957
:10165000BEE70020BCE700BF00100240000042428D
:10166000200000200070004070B5B8B30026054689
:101670004FF0000C866290F8510030B9284685F88A
:10168000506000F02FF8D5F828C0022185F85110DD
:1016900029680A6822F040020A60D5E90123D5E9E9
:1016A00003041A4310436A6920431043AA6902F4F1
:1016B00000731843EB6918432B6A184340EA0C0087
:1016C0000860042000EA12404860C86920F4006005
:1016D000C86101206E6585F8510000E001263046A2
:1016E00070BD0000FEB50021CDE90411CDE9021165
:1016F0000168124881421ED1A14900F554404A6850
:1017000042F480424A604A6802F480420192019A9F
:101710000A6842F008020A60096801F008010191B4
:10172000019903210591022103914FF42041029177
:1017300002A9FFF76FF806B080BD00BF0038004077
:101740002DE9F843044690F85000012801D1022009
:10175000A4E04FF001091D4616460F4684F850904C
:10176000FFF732F9804694F85100012854D1012046
:10177000002F00F08E80002E00F08B800320731E5F
:1017800084F851000020B3FA83F36065E686A686EC
:101790002763A087A063C4E91000E0875B09A16804
:1017A0002068B1F5004F02BF016841F4804101603B
:1017B000016849065EBF016841F04001016061684F
:1017C000E268B1FA81F1B2F5006F4FEA511141EAD6
:1017D000030123D131B137F8021BC1602763E08ECA
:1017E0000138E0866E1C13E020688168890707D401
:1017F000FFF7EAF866B1A0EB0800A84208D347E07B
:10180000216B31F8022BC2602163E08E0138E08643
:10181000E08E0028E8D124E002203AE039B139789E
:101820000173206B01302063E08E0138E0866E1C6E
:1018300014E020688168890707D4FFF7C5F86EB106
:10184000A0EB0800A84209D322E0216B09780173BC
:10185000206B01302063E08E0138E086E08E0028A6
:10186000E7D120462946424600F0EDFD08B1202090
:101870006065A06838B9002000902068C1680091B8
:10188000806800900098606D002818BF012000E07B
:101890000320002184F8501084F8519001B0BDE875
:1018A000F0830000411E0020B0EB116F1CBF01202F
:1018B0007047044AF023516003490B700721906080
:1018C0001160704710E000E023ED00E070477047C2
:1018D00090F83C300222012B19D080B580F83D20D1
:1018E00002685368D2F808C023F0700ED1E90031C5
:1018F00043EA0E0353602CF08003194391600022E9
:10190000012180F83C2080F83D10BDE88040104661
:101910007047B0B110B5044690F83D0028B90020DA
:1019200084F83C00204600F00FF80220211D84F8C6
:101930003D00206800F0C4FE012084F83D00002036
:1019400010BD01207047000000680C49884218BF94
:101950007047E0B50A480022016841F40061016067
:101960000221006800F40060019001981920FFF73F
:10197000D9FB1920BDE88C40FFF7C6BB002C014005
:101980001810024010B590F83C2004460220012AAD
:1019900008BF10BD84F83D0001204FF6777284F82F
:1019A0003C00206884465CF8083F23EA0202CCF839
:1019B00000200B682BB1102B03D0202B18BF302B2D
:1019C0000FD1DCF8000020F07000184340F0070051
:1019D000CCF800000020012184F83C0084F83D1080
:1019E00010BD402B1AD0502B26D0602B32D0B3F52F
:1019F000005F3DD0702BEDD1D1E90102C9681043E1
:101A000040EA0120DCF8001021F47F410843CCF8C3
:101A10000000DCF8000040F07700D9E74B68CA68A6
:101A2000194600F07BFED4F800C05CF8080F40F0C7
:101A3000470020F03000CBE74B68CA68194600F039
:101A40006DFED4F800C05CF8080F40F0570020F09D
:101A50002000BDE74B68CA68194600F070FED4F854
:101A600000C05CF8080F40F0670020F01000AFE7FE
:101A7000D1E90102C968104340EA0120DCF80010F6
:101A800021F47F410843CCF80000DCF8000040F46A
:101A900080409DE7704710B50446006801698907DA
:101AA00044BFC1685FEA817138D40169490744BF06
:101AB000C1685FEA41713DD40169090744BFC1684B
:101AC0005FEA017143D40169C90644BFC1685FEA96
:101AD000C16148D40169C9071CBFC1685FEAC1710F
:101AE0004ED10169090644BFC1685FEA01614FD464
:101AF0000169490644BFC1685FEA416150D4016988
:101B0000890646BFC1685FEA816110BD6FF02001A0
:101B100001612046BDE81040FFF7D9BE6FF0020119
:101B20000161012121778069800741D02046FFF7BC
:101B3000B1FF43E06FF00401016102212177806968
:101B400010F4407F3ED02046FFF7A4FF40E06FF046
:101B50000801016104212177C06980073CD020463B
:101B6000FFF798FF3EE06FF0100101610821217737
:101B7000C06910F4407F39D02046FFF78BFF3BE06F
:101B80006FF001010161204600F03CF82068A8E7F1
:101B90006FF0800101612046FFF798FE2068A7E7FB
:101BA0006FF040010161204600F02DF82068A6E7A3
:101BB000204600F025F8204600F023F8002020778A
:101BC000206872E7204600F01BF8204600F019F864
:101BD0000020207720686FE7204600F011F82046AB
:101BE00000F00FF80020207720686CE7204600F016
:101BF00007F8204600F005F800202077206869E704
:101C000070477047704770477047000010B5D0F8B4
:101C100000E00446DEF80010DEF80C20DEF8143098
:101C20005FEA017C50D002F4907003F00103C01809
:101C300052D0C8071FBF12F48070E06B40F0010063
:101C4000E063480704D51BB1E06B40F00200E0639D
:101C5000880704D51BB1E06B40F00400E063BCF1E1
:101C6000000F04D51BB1E06B40F00800E063E06BAF
:101C700000286ED002EA0100800604D5204600F05C
:101C80006AFED4F800E0DEF81400E16B00F04000DA
:101C900001F0080140184CD0204600F04FFE2068AB
:101CA0004169490640D5416921F040014161606BBD
:101CB000D0B32F494163FEF725FD002849D0606B62
:101CC000416BBDE81040084711408A0605D5204603
:101CD000BDE8104000F03FBE114008060FD4480692
:101CE00037D5DEF80C0020F04000CEF80C002020A4
:101CF00084F839002046BDE8104000F0F2B994F8AD
:101D00003900212825D1A068216AB0F5805F16D15D
:101D100008886FF35F20CEF804002069002814BF04
:101D2000481C881C20620FE02046BDE81040FFF7E9
:101D30006BBF2046FFF768FF0020E06310BD481C22
:101D400020620878CEF80400E08C0138E0840004BA
:101D500000D010BDDEF80C0020F08000CEF80C00A2
:101D6000DEF80C0040F04000CEF80C0010BD00BFC3
:101D70003129000850B310B5044690F8390028B94D
:101D8000002084F83800204600F022F8242084F84F
:101D900039002068C16821F40051C160204600F07C
:101DA00017FE2068016921F490410161416921F029
:101DB0002A014161C16841F40051C1600020202125
:101DC000E06384F8391084F83A1010BD01207047A0
:101DD00070B586B000263849CDE90466CDE90266C3
:101DE0000068884233D03549884263D13448354C45
:101DF00002AD016841F480410160016801F4804155
:101E000001910199016841F00401016029460068CF
:101E100000F0040001900198032005900220039037
:101E20004FF4007002902046FEF7F4FC0020294693
:101E3000CDE903004FF4806002902046FEF7EAFCF3
:101E4000252001210022FFF76DF9252030E01C48F4
:101E500002AD416841F480214160416801F4802174
:101E600001910199016841F008010160294600686B
:101E700000F00800019001980320059002200390D3
:101E80004FF4806002900F4800F580642046FEF712
:101E9000C1FC4FF40060CDE903662946029020465C
:101EA000FEF7B8FC272001210022FFF73BF927208D
:101EB000FFF72AF906B070BD004800400038014025
:101EC00018100240000801402DE9F041044690F846
:101ED0003A0020280AD10E460120002945D0174695
:101EE000002A42D094F83800012802D10220BDE82F
:101EF000F08100201D46E063012084F83800222094
:101F000084F83A00FEF760FD8046E785A78523E068
:101F1000E08D202142462B460138E0852046A76807
:101F200000F098FDB7F5805F08D100BB20682169FB
:101F3000406869B1C0B226F8010B0DE0B8B920685D
:101F40002169406809B100F07F0006F8010B03E049
:101F50006FF35F2026F8020BE08D0028D8D1002017
:101F6000202184F8380084F83A10BDE8F08103207D
:101F7000BDE8F081034690F83A00202806D1012000
:101F8000E9B1E2B193F83800012801D1022070478D
:101F90000020DA85D8639A859962222183F8380077
:101FA00083F83A101968CA6842F48072CA604A69B4
:101FB00042F001024A61CA6842F02002CA607047DA
:101FC000B0B5184988420ED01749884218BFB0BD35
:101FD000164801220A23041D1248214600F02AF85F
:101FE0001148214619E0114CE078F02813D1104D2A
:101FF000287801280FD0F02004F111010922642370
:1020000020740848FFF760FF2978607C013981421D
:1020100004BF012020700348E11C0122BDE8B0404C
:10202000FFF7A8BF7C0200203C020020280000200F
:10203000240000202DE9F041044690F839002028C2
:102040000AD10E460120002949D01746002A46D061
:1020500094F83800012802D10220BDE8F081002068
:102060001D46E063012084F83800212084F83900FF
:10207000FEF7AAFC8046E784A7841DE0E08C80215F
:1020800042462B460138E0842046A76800F0E2FC77
:10209000B7F5805F0BD1C8B9318820686FF35F2135
:1020A00041602069002814BF0136023604E068B997
:1020B000206816F8011B4160E08C0028DED1204624
:1020C000402142462B4600F0C5FC10B10320BDE87C
:1020D000F0810020202184F8380084F83910BDE810
:1020E000F0817047FEE70268516949054FF0000131
:1020F0000FD56FF4806353612022016380F83D2087
:1021000080F83E1080F83C10016C41F0040101643D
:10211000012108467047F8B515460E4604464F1C87
:102120002068406940071AD42046FFF7DCFFA0B9B9
:10213000002FF5D0FEF748FC16B1401BB042EFD996
:1021400000202021206384F83D1084F83E0084F8AC
:102150003C00206C40F020002064012000E00020C2
:1021600001B0F0BD2DE9F047DDF820909A46164603
:1021700080468FB201F47F045D1C1820B4F5803FC7
:1021800008BF1420D8F8001008583840C01BB0FA17
:1021900080F04009B0421CBF0020BDE8F087002D50
:1021A000EBD0FEF711FCBAF1000F03D0A0EB090051
:1021B0005045E2D900202021C8F8300088F83D10B1
:1021C00088F83E0088F83C00D8F8400040F0200035
:1021D000C8F840000120BDE8F0872DE9F843984693
:1021E000164681468FB201F47F05541CD9F80000D1
:1021F000B5F5803F0CBF416981693940B9421AD0B9
:102200004169490519D4002CF0D0FEF7DDFB1EB161
:10221000A0EB0800B042E9D900202021C9F8300025
:1022200089F83D1089F83E0089F83C00D9F8400053
:1022300040F0200016E0002017E0016841F4007132
:1022400001606FF48061416100202021C9F83000F5
:1022500089F83D1089F83E0089F83C00D9F8400023
:1022600040F00400C9F84000012001B0BDE8F0834F
:1022700070B515460E46044620684169490644BFBC
:10228000002070BD4169C90610D4FEF79DFB16B150
:10229000401BB042F0D900202021206384F83D107B
:1022A00084F83E00206C40F020000AE06FF010013E
:1022B000416100202021206384F83D1084F83E0015
:1022C000206C2064002084F83C00012070BDF8B52B
:1022D00015460E4604464F1C2068406900061AD475
:1022E0002046FFF700FFA0B9002FF5D0FEF76CFBEA
:1022F00016B1401BB042EFD900202021206384F8A2
:102300003D1084F83E0084F83C00206C40F0200032
:102310002064012000E0002001B0F0BD05484FF42A
:1023200080510022FEF74BBB02484FF4805101223E
:10233000FEF745BB000C01401CB54424002808BF33
:102340004024FFF7EBFF0DF107008DF8074000F088
:102350003BF8FFF7E9FF1CBDE0B5FFF7DFFF042006
:102360008DF807000DF1070000F02EF8FFF7DCFFF5
:102370008CBDBCB50C460546FFF7D0FF3E208DF85E
:1023800007400DF1060400EB450040F0C0008DF859
:102390000600204600F018F8601C00F015F8FFF762
:1023A000C3FFBCBD1CB56FF07F04012808BF41F01E
:1023B0008804FFF7B3FF0DF107008DF8074000F028
:1023C00003F8FFF7B1FF1CBD0146024801220A23B2
:1023D000FFF7B6B9A401002080B5FFF79FFF642086
:1023E000FEF7DEF9BDE88040FFF79EBF10B512484A
:1023F000124C417879B1083000F078F820468021FD
:102400000022FEF7DCFA04F5806001210122BDE81C
:102410001040FEF7D4BA0C3000F0B8F82046802106
:102420000122FEF7CCFA04F5806001210022BDE80C
:102430001040FEF7C4BA00BF280000200008014089
:10244000FEE77047704710B513460A4680210446E0
:1024500000F00AF800280FBF0020606D40F0200057
:10246000606518BF032010BD2DE9F041984616465F
:102470000F460446551C206880683840B8421CBF8F
:102480000020BDE8F081002DF5D0FEF79DFAA0EB0D
:102490000800B042EFD32068416821F0E0014160BC
:1024A0006168B1F5827F0AD1A168B1F5004F02D011
:1024B000B1F5806F03D1016821F040010160A16A8C
:1024C000B1F5005F07D1016821F400510160016896
:1024D00041F400510160002084F85000012084F88C
:1024E00051000320BDE8F081704700002DE9F8435A
:1024F00000682149FDF790FEFDF7DEFF64210A2206
:10250000B0FBF1F1B1FBF2F303EB8303A1EB430664
:10251000B0FBF2F1B1FBF2F202EB8202A1EB420559
:1025200001EB8101A0EB410031462A461FFA80F9F8
:1025300012A04B4600F066FCFFF70EFF0120FFF7EC
:10254000FBFE334F01200021B847DFF8CC8002208A
:1025500008F10104A15DB847605D40F080010320EF
:10256000B84714F809100420B84798F80010012063
:10257000BDE8F843FFF716BF000020414C44524825
:10258000203D202564256420256400002DE9F843C2
:102590000468FFF7E1FE0120FFF7CEFEDFF8709040
:1025A00001200021C8471B4924F00040FDF734FEFC
:1025B000FDF782FF044664200A27DFF85C80B4FB45
:1025C000F0F0B0FBF7F108F1010601EB8101A0EB9F
:1025D0004100315C0220C847B4FBF7F5B5FBF7F0CA
:1025E00000EB8000A5EB4000305C40F08001032050
:1025F000C84705EB8500A4EB400080B2315C0420A5
:10260000C84798F800100120BDE8F843FFF7CABE9C
:10261000732300080000204104000020FEF71CBDC9
:1026200070B590B006AC1821201DFDF792FD4FF457
:102630006010002502260F9010200E950D960B902D
:1026400001200A9020460696FEF77CFE4FF480603B
:102650000595022104900F20CDE90265019001A8A3
:10266000FEF78EFD10B070BD0E480F4A016841F0B4
:1026700001010160416811400C4A4160016811404C
:102680000160016821F480210160416821F4FE01AC
:1026900041604FF41F01816005484FF00061016007
:1026A000704700BF001002400000FFF8FFFFF6FE79
:1026B00008ED00E00148FFF7EEB900BFFC01002083
:1026C000B0B50368124DB0F1804F07D0114CA04255
:1026D00004D0A84202D0104CA04207D14C6823F489
:1026E0005C73CA6824F44074234313434A6923F09B
:1026F0008003A84242EA030202608A68C2620A6852
:10270000826204BF0969296301214161B0BD00BF34
:10271000002C01400004004000080040D0F820C018
:10272000036A23F001030362836923F0F00343EAA1
:10273000021282612CF00A02114301627047036A9F
:1027400023F010030362836923F4704343EA0232E7
:10275000036A826123F0A00242EA0111016270471C
:10276000FEB5E520534C544E4FF47A750DF10A0234
:10277000802101238DF80B00FE2000958DF80A00C2
:1027800001208DF8090000208DF80800ADF8060042
:102790002046B047564F6420B8470DF10902204645
:1027A000802101230095B0476420B8470DF10B024A
:1027B0002046802101230095B0470520B84740F608
:1027C000B8300DF106028021032300902046FEF769
:1027D000BBF99DF806009DF8071041EA00204FF66E
:1027E000FE710840FDF763FE4FF05E51FDF714FDEA
:1027F0000349FDF711FD0349FDF7B6FC03B0F0BD39
:102800000000FA420000C0C0FEB5E320294C2A4E69
:102810004FF47A750DF10A02802101238DF80B0027
:10282000FE2000958DF80A0001208DF80900002097
:102830008DF80800ADF806002046B047D24F64205E
:10284000B8470DF109022046802101230095B047C9
:102850006420B8470DF10B0220468021012300952A
:10286000B0470520B84740F6B8300DF10602802188
:10287000032300902046FEF767F99DF806009DF8B7
:10288000071041EA00204FF6FE710840FDF70FFEE9
:102890004FF05E51FDF7C0FCFDF722FE074A084BE2
:1028A000FDF793FD074A084BFDF7E8FCFDF72BFE0B
:1028B00003B0F0BD500100206D0E0008D7A3703D9D
:1028C0000AF76540CDCCCCCCCCEC46C0B0B5AE4D13
:1028D0006420A847FFF744FF134CA0606420A8477A
:1028E000FFF792FFE06064202946BDE8B04008474A
:1028F000A107000880B50C48F02100F81A1F0B4909
:102900000978417050F8121C50F80E2CC0F80220C3
:10291000C0F806100B21012200F0D2F84FF4FA7033
:10292000BDE88040FDF73CBF2800002024000020C7
:10293000406A0021C185C184FFF766B90168CA6891
:1029400022F49072CA604A6922F001024A61202191
:1029500080F83A10704790F83A10222918BF704753
:102960008168B1F5805F08D102680369816A5268A5
:1029700083B1D2B221F8012B10E0026901684968E5
:10298000002A826A02F10103836218BF01F07F010D
:10299000117004E06FF35F2221F8022B8162C18D78
:1029A0000139C185090400D070470168CA6822F066
:1029B0002002CA60CA6822F48072CA604A6922F0A2
:1029C00001024A61202180F83A10FFF7F9BA0000AD
:1029D00010B5044600680169E26821F440511143D2
:1029E00041F20C620161D4F808C0D4E904E3C16883
:1029F00091434EEA0C021A431143C1604169A26936
:102A000021F44071114341611149884202D0FEF71F
:102A100055FC01E0FEF75CFC19214843D4E90012A3
:102A20006FF063049200B0FBF2F06422B0FBF2F3AB
:102A300003FB0400322404EB0010B0FBF2F000F0C2
:102A4000F00200F00F0002EB03121044886010BD8A
:102A5000003801402DE9F0411D4690460F460446DE
:102A60005E1C206801683940B94204BF0020BDE8FF
:102A7000F081002EF5D035B1FDF7A6FFA0EB0800E0
:102A8000A842EED92068C16821F4D071C1604169C3
:102A900021F0010141612020002184F8390084F8EF
:102AA000381084F83A000320BDE8F081D048FFF7E1
:102AB000ADB800BFCF48FFF7A9B800BFFEE70000E0
:102AC000F8B50126FD2923D80546424817460C468D
:102AD00004210022FDF773FF0A20FDF761FE0E4876
:102AE000A11CC77086704170FC2101700430214622
:102AF00004E015F8012B013900F8012B0029F8D169
:102B0000BC480549221D4FF47A73FFF793FA00265B
:102B1000304601B0F0BD00BF4C00002070B51A4D2A
:102B20006420A847194C1D4E19A108224FF47A734E
:102B30002046B0476420A84719A120460A224FF436
:102B40007A73B0476420A84718A1204608224FF4A2
:102B50007A73B0476420A84717A120460C224FF48F
:102B60007A73B0476420A84717A120460A224FF481
:102B70007A73B0476420A847164804210022BDE8B4
:102B80007040FDF71CBF00BFA10700087C020020B9
:102B900041542B4445563D450000000035200008B7
:102BA00041542B47524F55503D32000041542B4366
:102BB000483D31310000000041542B5458504F57CC
:102BC00045523D340000000041542B534C454550C4
:102BD0003D300000000C014010B5074C00F00F0321
:102BE000044AB0F1FF3F2344C8BF8318080118709E
:102BF00010BD00BF00E400E014ED00E0E0B501907E
:102C00007B4801A901220A23FFF714FA019802B0B8
:102C100080BD00BF86B0FEF729FAFFF701FD40F640
:102C2000B830FDF7BDFD002469486A4F6A4E0022A6
:102C30000594016807F5504541F004010160016801
:102C400001F0040100910099016841F00801016060
:102C50008021006800F00800009000982846B047E6
:102C600007F5544901210022BA464FF0010B4846AE
:102C7000B047484641F204010122B04757480227B5
:102C800002AEDFF85C810497314603904020029049
:102C90002846C04780200597CDE903B4314602900D
:102CA0002846C04741F205000597CDE903B43146F7
:102CB00002904846C047172002210122FEF732FA4F
:102CC0001720FEF721FA4748474A4FF480410AF59A
:102CD000E0530462C0E90032C0E90244C0E90414D0
:102CE000C0E90644FDF776FE404880220A214FF4F1
:102CF0008273C0E90824C0E90A4138214FF4007208
:102D0000C0E900A3C0E90244C0E9047BC0E9062190
:102D1000FEF7AAFC364D4FF4E1370AF580304FF04C
:102D20000C08C5E900072846C5E90244C5E904487E
:102D3000C5E90644FFF71EF82E4E0AF58050C6E995
:102D400000073046C6E90244C6E90448C6E906441D
:102D5000FFF710F8284F14204FF6FF110AF57442C0
:102D60000594CDE90344C7E90021C7E9024038468C
:102D7000C7E90444BC61FEF7CCFD4FF4805002A9C2
:102D800002903846FEF7FEFD69463846CDE900441C
:102D9000FEF79EFD194930460122FFF7EBF818496E
:102DA00028460122FFF7E6F8FFF7B8FEFFF714FB0D
:102DB000094B48460421002298476420FDF7F0FCA7
:102DC000FFF784FDFFF712FBFFF794FDF8E700BF64
:102DD0001810024000380040BF0900080000311000
:102DE0001508000850010020801A0600A4010020E8
:102DF0003C0200207C020020FC0100202B0000206F
:102E00002C0000200FB4054B10B503A9044A02980A
:102E100000F018F810BC5DF814FB0000FD2B000852
:102E20000000002002E008C8121F08C1002AFAD1E1
:102E300070477047002001E001C1121F002AFBD13A
:102E4000704700002DE9FF4F89B09B4604460025DE
:102E500006E025280BD05A460B999047641C6D1C40
:102E600020780028F5D10DB02846BDE8F08F002766
:102E7000B8460122474900E0074314F8013F203BD0
:102E800002FA03F00842F7D120782E2819D114F85D
:102E9000010F47F004072A280ED06FF02F02207888
:102EA000A0F1300109290CD808EB880102EB41019F
:102EB00000EB0108641CF2E70A98641C50F8048BCC
:102EC0000A9020780028CED0642808D0692806D03F
:102ED00075281ED05A460B9990476D1C58E00A99E8
:102EE0004FF00A0901C90A91002802DA40422D2157
:102EF00002E0390504D52B218DF82010012103E0D3
:102F0000F90704D02021F7E78A4608AE0DE000213A
:102F1000FAE70A994FF00A0901C90A91F7E7494609
:102F2000FDF70DFB303106F8011D0028F7D1ADEBA0
:102F3000060000F12009780701D44FF00108C845C8
:102F400002DDA8EB090000E000208046002706E033
:102F500008A85A46C05D0B9990476D1C7F1C5745C9
:102F6000F6DB04E030205A460B9990476D1CB8F10F
:102F70000001A8F10108F5DC05E016F8010B5A463E
:102F80000B9990476D1CB9F10001A9F10109F4DC1E
:102F9000641C65E709280100000000000000000033
:102FA00001020304060708090000000001020304EF
:102FB000D02F00080000002028000000242E000868
:102FC000F82F00082800002098060000342E000882
:102FD00000000000013F065B4F666D7D077F6F7745
:102FE0007C395E79710000000100000010000000D3
:082FF0000024F40001000000C0
:04000005080000ED02
:00000001FF
